{"abi":[{"type":"function","name":"allowance","inputs":[{"name":"","type":"address","internalType":"address"},{"name":"","type":"address","internalType":"address"}],"outputs":[{"name":"","type":"uint256","internalType":"uint256"}],"stateMutability":"view"},{"type":"function","name":"approve","inputs":[{"name":"spender","type":"address","internalType":"address"},{"name":"amount","type":"uint256","internalType":"uint256"}],"outputs":[{"name":"","type":"bool","internalType":"bool"}],"stateMutability":"nonpayable"},{"type":"function","name":"balanceOf","inputs":[{"name":"","type":"address","internalType":"address"}],"outputs":[{"name":"","type":"uint256","internalType":"uint256"}],"stateMutability":"view"},{"type":"function","name":"decimals","inputs":[],"outputs":[{"name":"","type":"uint8","internalType":"uint8"}],"stateMutability":"view"},{"type":"function","name":"mint","inputs":[{"name":"to","type":"address","internalType":"address"},{"name":"amount","type":"uint256","internalType":"uint256"}],"outputs":[],"stateMutability":"nonpayable"},{"type":"function","name":"name","inputs":[],"outputs":[{"name":"","type":"string","internalType":"string"}],"stateMutability":"view"},{"type":"function","name":"symbol","inputs":[],"outputs":[{"name":"","type":"string","internalType":"string"}],"stateMutability":"view"},{"type":"function","name":"transfer","inputs":[{"name":"to","type":"address","internalType":"address"},{"name":"amount","type":"uint256","internalType":"uint256"}],"outputs":[{"name":"","type":"bool","internalType":"bool"}],"stateMutability":"nonpayable"},{"type":"function","name":"transferFrom","inputs":[{"name":"from","type":"address","internalType":"address"},{"name":"to","type":"address","internalType":"address"},{"name":"amount","type":"uint256","internalType":"uint256"}],"outputs":[{"name":"","type":"bool","internalType":"bool"}],"stateMutability":"nonpayable"}],"bytecode":{"object":"0x60c0604052600960809081526826b7b1b5aa37b5b2b760b91b60a0525f906100279082610108565b506040805180820190915260038152624d544b60e81b602082015260019061004f9082610108565b506002805460ff19166012179055348015610068575f80fd5b506101c3565b634e487b7160e01b5f52604160045260245ffd5b600181811c9082168061009657607f821691505b6020821081036100b457634e487b7160e01b5f52602260045260245ffd5b50919050565b601f821115610103575f81815260208120601f850160051c810160208610156100e05750805b601f850160051c820191505b818110156100ff578281556001016100ec565b5050505b505050565b81516001600160401b038111156101215761012161006e565b6101358161012f8454610082565b846100ba565b602080601f831160018114610168575f84156101515750858301515b5f19600386901b1c1916600185901b1785556100ff565b5f85815260208120601f198616915b8281101561019657888601518255948401946001909101908401610177565b50858210156101b357878501515f19600388901b60f8161c191681555b5050505050600190811b01905550565b610658806101d05f395ff3fe608060405234801561000f575f80fd5b5060043610610090575f3560e01c806340c10f191161006357806340c10f191461010757806370a082311461011c57806395d89b4114610149578063a9059cbb14610151578063dd62ed3e14610164575f80fd5b806306fdde0314610094578063095ea7b3146100b257806323b872dd146100d5578063313ce567146100e8575b5f80fd5b61009c61018e565b6040516100a99190610498565b60405180910390f35b6100c56100c03660046104fe565b610219565b60405190151581526020016100a9565b6100c56100e3366004610526565b610247565b6002546100f59060ff1681565b60405160ff90911681526020016100a9565b61011a6101153660046104fe565b6103ae565b005b61013b61012a36600461055f565b60036020525f908152604090205481565b6040519081526020016100a9565b61009c6103de565b6100c561015f3660046104fe565b6103eb565b61013b61017236600461057f565b600460209081525f928352604080842090915290825290205481565b5f805461019a906105b0565b80601f01602080910402602001604051908101604052809291908181526020018280546101c6906105b0565b80156102115780601f106101e857610100808354040283529160200191610211565b820191905f5260205f20905b8154815290600101906020018083116101f457829003601f168201915b505050505081565b335f9081526004602090815260408083206001600160a01b0386168452909152902081905560015b92915050565b6001600160a01b0383165f908152600360205260408120548211156102aa5760405162461bcd60e51b8152602060048201526014602482015273696e73756666696369656e742062616c616e636560601b60448201526064015b60405180910390fd5b6001600160a01b0384165f9081526004602090815260408083203384529091529020548211156103155760405162461bcd60e51b8152602060048201526016602482015275696e73756666696369656e7420616c6c6f77616e636560501b60448201526064016102a1565b6001600160a01b0384165f908152600460209081526040808320338452909152812080548492906103479084906105fc565b90915550506001600160a01b0384165f90815260036020526040812080548492906103739084906105fc565b90915550506001600160a01b0383165f908152600360205260408120805484929061039f90849061060f565b90915550600195945050505050565b6001600160a01b0382165f90815260036020526040812080548392906103d590849061060f565b90915550505050565b6001805461019a906105b0565b335f908152600360205260408120548211156104405760405162461bcd60e51b8152602060048201526014602482015273696e73756666696369656e742062616c616e636560601b60448201526064016102a1565b335f908152600360205260408120805484929061045e9084906105fc565b90915550506001600160a01b0383165f908152600360205260408120805484929061048a90849061060f565b909155506001949350505050565b5f6020808352835180828501525f5b818110156104c3578581018301518582016040015282016104a7565b505f604082860101526040601f19601f8301168501019250505092915050565b80356001600160a01b03811681146104f9575f80fd5b919050565b5f806040838503121561050f575f80fd5b610518836104e3565b946020939093013593505050565b5f805f60608486031215610538575f80fd5b610541846104e3565b925061054f602085016104e3565b9150604084013590509250925092565b5f6020828403121561056f575f80fd5b610578826104e3565b9392505050565b5f8060408385031215610590575f80fd5b610599836104e3565b91506105a7602084016104e3565b90509250929050565b600181811c908216806105c457607f821691505b6020821081036105e257634e487b7160e01b5f52602260045260245ffd5b50919050565b634e487b7160e01b5f52601160045260245ffd5b81810381811115610241576102416105e8565b80820180821115610241576102416105e856fea2646970667358221220dc08d2a4b80f7fb595885c0eaa8d2bf1e4e6582293995f83d46694a0e663b18564736f6c63430008140033","linkReferences":{}},"methodIdentifiers":{"allowance(address,address)":"dd62ed3e","approve(address,uint256)":"095ea7b3","balanceOf(address)":"70a08231","decimals()":"313ce567","mint(address,uint256)":"40c10f19","name()":"06fdde03","symbol()":"95d89b41","transfer(address,uint256)":"a9059cbb","transferFrom(address,address,uint256)":"23b872dd"},"id":0}