{"abi":[{"type":"constructor","inputs":[{"name":"_asset","type":"address","internalType":"address"}],"stateMutability":"nonpayable"},{"type":"function","name":"asset","inputs":[],"outputs":[{"name":"","type":"address","internalType":"contract MockERC20"}],"stateMutability":"view"},{"type":"function","name":"balanceOf","inputs":[{"name":"","type":"address","internalType":"address"}],"outputs":[{"name":"","type":"uint256","internalType":"uint256"}],"stateMutability":"view"},{"type":"function","name":"deposit","inputs":[{"name":"amount","type":"uint256","internalType":"uint256"}],"outputs":[{"name":"shares","type":"uint256","internalType":"uint256"}],"stateMutability":"nonpayable"},{"type":"function","name":"totalAssets","inputs":[],"outputs":[{"name":"","type":"uint256","internalType":"uint256"}],"stateMutability":"view"},{"type":"function","name":"totalShares","inputs":[],"outputs":[{"name":"","type":"uint256","internalType":"uint256"}],"stateMutability":"view"}],"bytecode":{"object":"0x608060405234801561000f575f80fd5b5060405161041a38038061041a83398101604081905261002e91610052565b5f80546001600160a01b0319166001600160a01b039290921691909117905561007f565b5f60208284031215610062575f80fd5b81516001600160a01b0381168114610078575f80fd5b9392505050565b61038e8061008c5f395ff3fe608060405234801561000f575f80fd5b5060043610610055575f3560e01c806301e1d1141461005957806338d52e0f146100745780633a98ef391461009e57806370a08231146100a7578063b6b55f25146100c6575b5f80fd5b6100616100d9565b6040519081526020015b60405180910390f35b5f54610086906001600160a01b031681565b6040516001600160a01b03909116815260200161006b565b61006160025481565b6100616100b536600461027b565b60016020525f908152604090205481565b6100616100d43660046102a8565b610148565b5f80546040516370a0823160e01b81523060048201526001600160a01b03909116906370a0823190602401602060405180830381865afa15801561011f573d5f803e3d5ffd5b505050506040513d601f19601f8201168201806040525081019061014391906102bf565b905090565b5f80821161018b5760405162461bcd60e51b815260206004820152600c60248201526b1e995c9bc819195c1bdcda5d60a21b604482015260640160405180910390fd5b6002545f6101976100d9565b9050815f036101a8578392506101c0565b806101b383866102ea565b6101bd9190610307565b92505b5f546040516323b872dd60e01b8152336004820152306024820152604481018690526001600160a01b03909116906323b872dd906064016020604051808303815f875af1158015610213573d5f803e3d5ffd5b505050506040513d601f19601f820116820180604052508101906102379190610326565b50335f9081526001602052604081208054859290610256908490610345565b925050819055508260025f82825461026e9190610345565b9091555092949350505050565b5f6020828403121561028b575f80fd5b81356001600160a01b03811681146102a1575f80fd5b9392505050565b5f602082840312156102b8575f80fd5b5035919050565b5f602082840312156102cf575f80fd5b5051919050565b634e487b7160e01b5f52601160045260245ffd5b8082028115828204841417610301576103016102d6565b92915050565b5f8261032157634e487b7160e01b5f52601260045260245ffd5b500490565b5f60208284031215610336575f80fd5b815180151581146102a1575f80fd5b80820180821115610301576103016102d656fea26469706673582212209af297cd96d570da2d227c083410bc61cc5f4b72d5d24b7493aaffd03e47054f64736f6c63430008140033","linkReferences":{}},"methodIdentifiers":{"asset()":"38d52e0f","balanceOf(address)":"70a08231","deposit(uint256)":"b6b55f25","totalAssets()":"01e1d114","totalShares()":"3a98ef39"},"id":1}